:100000000C9467000C94C4010C9484000C9484003C
:100010000C9484000C9484000C9484000C94840050
:100020000C9484000C9484000C9484000C94840040
:100030000C9484000C9484000C9484000C94840030
:100040000C9484000C9484000C9484000C94840020
:100050000C948400090219000101008019090400B0
:100060000001000000000705810308000A120110CA
:1000700001FF000008C016DC0500010102000114A8
:1000800003480061006E006400730063006800753F
:1000900000680036036100720065006100350031C0
:1000A000002E006E0069006C007300400067006F56
:1000B000006F0067006C0065006D00610069006CF6
:1000C000002E0063006F006D00040309040011247A
:1000D0001FBECFE5D4E0DEBFCDBF10E0A0E6B0E0AC
:1000E000E4EAF7E002C005900D92A236B107D9F715
:1000F00010E0A2E6B0E001C01D92AD3CB107E1F70F
:100100000E94B8030C94D0030C940000CF93C62F28
:100110002091720024FF07C02091730038E8232744
:100120002093730003C02AE520937200DC01E4E70A
:10013000F0E09C2F9E0F8D918193892F8E1B1816B6
:10014000D4F36C2F84E790E00E94C001CC5FC09391
:100150007200CF910895CF93DF93809183008350F5
:1001600087FD94C09091800020917F002D3209F08E
:100170008BC0883009F088C0CCE0D0E0C91BD10921
:10018000C957DF4F83EC809367008AE58093610055
:10019000109262008881807621F0CE010E948F0348
:1001A0006AC09A81109270008981811106C01092F4
:1001B000710020E730E082E05AC0853019F4909356
:1001C000840052C08630D1F58B81813041F48DE6B8
:1001D00090E0909382008093810082E12BC0823076
:1001E00041F484E590E0909382008093810089E15E
:1001F00021C08330F1F4911108C089EC90E0909314
:1002000082008093810084E015C0913041F483E93D
:1002100090E0909382008093810086E30BC092303F
:1002200041F48FE790E0909382008093810084E115
:1002300001C080E090E4909362001DC0883069F0B6
:10024000893019F4909386000FC08A3049F08B30C2
:1002500059F48BE48093730007C026E830E002C0B5
:1002600020E730E081E003C020E730E080E0309319
:100270008200209381009F81911104C09E81981774
:1002800008F4892F809360001092830080916100B0
:1002900084FF47C0809160008F3F09F442C0C82F9F
:1002A000893008F0C8E08C1B809360008091670063
:1002B00098E8892780936700CC2331F12091810051
:1002C000309182008091620086FF0BC0A8E6B0E00A
:1002D000F9018C2F8A0F94919D9331968A13FBCF4D
:1002E00009C0D901E8E6F0E08C2F8E0F9D91919323
:1002F0008E13FCCF8FEF8C0F90E00196820F931F2F
:1003000090938200809381006C2F88E690E00E9499
:10031000C001CC5FCC3019F08FEF80936000C093A8
:10032000610084E190B3947131F48150D9F7109257
:10033000840010927E00DF91CF91089585B782608E
:1003400085BF8BB780648BBF8BE4809373008AE595
:10035000809372000895A82FB92F80E090E041E0CB
:1003600050EA609530E009C02D91822797958795D6
:1003700010F084279527305EC8F36F5FA8F30895C7
:10038000EADF8D939D930895CF93CFB7CF93DF93FB
:10039000C395849BE9F7849B0BC0849B09C0849B15
:1003A00007C0849B05C0849B03C0849B01C08BC095
:1003B0006F93C0918000DD27C957DF4F2F9365E50C
:1003C000849B03C02F916F91E6CF0F931F934F93A0
:1003D00020E040E15F9300B3047104FB27F93F93F1
:1003E00050E03BE039C0147140642F77012F5F5F0C
:1003F0001EC0406810B314712F7752501FC0406464
:1004000000B32F770471D1F15F5F00C023C0406259
:1004100010B32F77147191F15F5F00C025C0047194
:100420001027515012F45D5F0000115027952C3FAA
:1004300010B3C8F614710127015027952C3FC8F658
:100440004227499300B3047110274F731150279529
:100450002C3FA8F64695469510B3147179F0012704
:10046000015027952C3F98F66B5A60F3315000B33A
:10047000B0F600C010E41ABF002719C03B503195F8
:10048000C31BD04010E41ABF0881033C09F10B34B0
:10049000F9F020917E001981110F1213EDCF4A81DE
:1004A000441F093651F10D3211F0013E29F7009336
:1004B00085003F915F914F911F910F912F916F9107
:1004C000CAB7C6FD65CFDF91CF91CFBFCF91189549
:1004D00020918500222369F310918300112391F567
:1004E000343092F13093830020937F00109180008C
:1004F0003BE0311B3093800027C000918300013026
:100500000CF50AE54F7049F43091610034FD1DC0CF
:1005100000936100C7E6D0E01CC03091720034FD4A
:1005200014C000937200C3E7D0E013C0052710E0A9
:1005300000C0000002BB1AC0052710E0221F1DC02A
:1005400010E021C04AE502C032ED432FC4E1D0E003
:1005500032E011B31461949A02B311BB54E120E864
:1005600065E320FF052702BB279517951C3FF0F692
:100570006695B8F7B1F720FF052702BB27951795B9
:100580001C3FD0F62795179517FF052700001C3F45
:1005900002BBB0F629913A9519F70B7E10918400B1
:1005A000110FC651D04002BB11F010937E0010E431
:1005B0001ABF006111B31B7E402F4B7E54E05A9549
:1005C000F1F702BB11BB42BB74CF809163008F5F18
:1005D000809363008093C10006B607FE92C081B18C
:1005E000887F883209F459C078F4803169F118F4B1
:1005F000883051F179C0883109F441C0803209F066
:1006000073C084EB86BF40C0883409F44EC048F400
:10061000803409F069C085E08093BD0010926600C7
:100620005CC0803509F44CC0883509F05DC087E0B6
:100630008093BD008091BE008F5F8093BE001092BA
:100640006600109265005BC080916500811109C051
:1006500081E08093BD001092BF001092C00080E73F
:1006600011C0813009F04DC081E783B984E08093E7
:10067000BD008091C3008F5F8093C30033C082E0D0
:100680008093BD0083B92EC006B607FEFDCF80E77C
:1006900083B981E08093BF0025C081E0809365002D
:1006A00083E08093BD0084EA2BC084EA86BF06B64F
:1006B00007FEFDCF81E783B981E08093C00012C0BF
:1006C000E0916600E73058F481E08E0F8093660079
:1006D00083B1F0E0E356FF4F808384EC11C086E0E5
:1006E0008093BD0084E80CC01092660010926500F3
:1006F00081E08093C10081B1887F8093C20084EB48
:1007000086BF08958C9A2FEF85EA9EE021508040A5
:100710009040E1F700C000008C9878940895FC01A7
:100720008181811114C086818093AD00878180937F
:10073000AE0082818093AF0083818093B0008DEA08
:1007400090E0909382008093810084E0089581304E
:1007500019F48DE990E004C0833041F48DEB90E012
:10076000909382008093810080E1089580E0089555
:100770002EE088E190E00FB6F894A89581BD0FBEF9
:1007800021BD0E949E010E94820314BA83E085BBB2
:1007900084EA86BFA8950E94AB000E94E502FACFCA
:0407A000F894FFCFFB
:0207A400FF5AFA
:00000001FF
