:100000000C9467000C94C4010C9484000C9484003C
:100010000C9484000C9484000C9484000C94840050
:100020000C9484000C9484000C9484000C94840040
:100030000C9484000C9484000C9484000C94840030
:100040000C9484000C9484000C9484000C94840020
:100050000C948400090219000101008019090400B0
:100060000001000000000705810308000A120110CA
:1000700001FF000008C016DC0500010102000114A8
:1000800003480061006E006400730063006800753F
:1000900000680036036100720065006100350031C0
:1000A000002E006E0069006C007300400067006F56
:1000B000006F0067006C0065006D00610069006CF6
:1000C000002E0063006F006D00040309040011247A
:1000D0001FBECFE5D4E0DEBFCDBF10E0A0E6B0E0AC
:1000E000E0E6F7E002C005900D92A236B107D9F71D
:1000F00010E0A2E6B0E001C01D92AB3BB107E1F712
:100100000E948B030C94AE030C940000CF93C62F77
:1001100020916F0024FF07C02091700038E823274A
:100120002093700003C02AE520936F00DC01E1E713
:10013000F0E09C2F9E0F8D918193892F8E1B1816B6
:10014000D4F36C2F81E790E00E94C001CC5FC09394
:100150006F00CF910895CF93DF93809180008350FB
:1001600087FD94C090917D0020917C002D3209F094
:100170008BC0883009F088C0CCE0D0E0C91BD10921
:10018000CC57DF4F83EC809364008AE58093610055
:10019000109262008881807621F0CE010E944D038A
:1001A0006AC09A8110926D008981811106C01092F7
:1001B0006E002DE630E082E05AC0853019F490934D
:1001C000810052C08630D1F58B81813041F48DE6BB
:1001D00090E090937F0080937E0082E12BC082307C
:1001E00041F484E590E090937F0080937E0089E164
:1001F00021C08330F1F4911108C089EC90E0909314
:100200007F0080937E0084E015C0913041F483E943
:1002100090E090937F0080937E0086E30BC0923045
:1002200041F48FE790E090937F0080937E0084E11B
:1002300001C080E090E4909362001DC0883069F0B6
:10024000893019F4909383000FC08A3049F08B30C5
:1002500059F48BE48093700007C023E830E002C0BB
:100260002DE630E081E003C02DE630E080E0309301
:100270007F0020937E009F81911104C09E8198177A
:1002800008F4892F809360001092800080916100B3
:1002900084FF47C0809160008F3F09F442C0C82F9F
:1002A000893008F0C8E08C1B809360008091640066
:1002B00098E8892780936400CC2331F120917E0057
:1002C00030917F008091620086FF0BC0A5E6B0E010
:1002D000F9018C2F8A0F94919D9331968A13FBCF4D
:1002E00009C0D901E5E6F0E08C2F8E0F9D91919326
:1002F0008E13FCCF8FEF8C0F90E00196820F931F2F
:1003000090937F0080937E006C2F85E690E00E94A2
:10031000C001CC5FCC3019F08FEF80936000C093A8
:10032000610084E199B1947131F48150D9F7109250
:10033000810010927B00DF91CF910895E9E6F0E013
:10034000808182608083E89A8BE4809370008AE5E4
:1003500080936F000895A82FB92F80E090E041E0CE
:1003600050EA609530E009C02D91822797958795D6
:1003700010F084279527305EC8F36F5FA8F30895C7
:10038000EADF8D939D930895CF93CFB7CF93DF93FB
:10039000C3954C9BE9F74C9B0BC04C9B09C04C9BF5
:1003A00007C04C9B05C04C9B03C04C9B01C08BC03D
:1003B0006F93C0917D00DD27CC57DF4F2F9365E50C
:1003C0004C9B03C02F916F91E6CF0F931F934F93D8
:1003D00020E040E15F9309B1047104FB27F93F93EA
:1003E00050E03BE039C0147140642F77012F5F5F0C
:1003F0001EC0406819B114712F7752501FC040645D
:1004000009B12F770471D1F15F5F00C023C0406252
:1004100019B12F77147191F15F5F00C025C004718D
:100420001027515012F45D5F0000115027952C3FAA
:1004300019B1C8F614710127015027952C3FC8F651
:100440004227499309B1047110274F731150279522
:100450002C3FA8F64695469519B1147179F00127FD
:10046000015027952C3F98F66B5A60F3315009B133
:10047000B0F600C011E01CBB002719C03B503195FD
:10048000C31BD04011E01CBB0881033C09F10B34B5
:10049000F9F020917B001981110F1213EDCF4A81E1
:1004A000441F093651F10D3211F0013E29F7009336
:1004B00082003F915F914F911F910F912F916F910A
:1004C000CCB3C0FD65CFDF91CF91CFBFCF91189551
:1004D00020918200222369F310918000112391F56D
:1004E000343092F13093800020937C0010917D0095
:1004F0003BE0311B30937D0027C00091800001302C
:100500000CF50AE54F7049F43091610034FD1DC0CF
:1005100000936100C4E6D0E01CC030916F0034FD50
:1005200014C000936F00C0E7D0E013C0052710E0AF
:1005300000C000000BB91AC0052710E0221F1DC023
:1005400010E021C04AE502C032ED432FC4E1D0E003
:1005500032E01AB114615C9A0BB11AB954E120E887
:1005600065E320FF05270BB9279517951C3FF0F68B
:100570006695B8F7B1F720FF05270BB927951795B2
:100580001C3FD0F62795179517FF052700001C3F45
:100590000BB9B0F629913A9519F70B7E10918100AD
:1005A000110FC651D0400BB911F010937B0011E030
:1005B0001CBB00611AB11B7E402F4B7E54E05A9544
:1005C000F1F70BB91AB94BB974CF06B607FE55C08F
:1005D00081B1887F883241F170F48031B9F018F42C
:1005E0008830A1F044C08831C1F0803209F03FC0AA
:1005F00084EB86BF14C08834E1F028F48034B9F568
:100600001092630030C0803591F51BC0809163006B
:10061000882341F0813089F511C082E010C006B610
:1006200007FEFDCF80E70BC081E08093630084EA82
:1006300023C084EA86BF06B607FEFDCF81E783B9F3
:1006400014C080916300873080F4E091BA0091E09B
:100650009E0F9093BA0093B1F0E0E656FF4F90835F
:100660008F5F8093630084EC07C084E805C010921C
:10067000BA001092630084EB86BF0895549A2FEF5E
:1006800085EA9EE0215080409040E1F700C00000E4
:10069000549878941092BA000895FC0181818111D8
:1006A00014C086818093AA0087818093AB008281E9
:1006B0008093AC0083818093AD008AEA90E09093B0
:1006C0007F0080937E0084E00895813041F48AE9C0
:1006D00090E090937F0080937E0080E1089580E019
:1006E000089510BC87E689B95998539A86E880BD69
:1006F00008955D9BFECF8CB980E090E00895CF9384
:10070000DF93EC018991882319F00E947903FACFD5
:10071000DF91CF9108952EE088E190E00FB6F89434
:10072000A89581BD0FBE21BD14BA83E085BB8FEFB4
:1007300087BB18BA0E9471031092BA0084EA86BF80
:10074000A8950E94E50218BACAE9D0E089910E94F2
:10075000790380E0C23AD807C9F7F2CFF894FFCF07
:02076000FF5A3E
:00000001FF
